{
  "contractName": "Pets",
  "abi": [
    {
      "constant": false,
      "inputs": [
        {
          "internalType": "uint256",
          "name": "petId",
          "type": "uint256"
        }
      ],
      "name": "NewPet",
      "outputs": [
        {
          "internalType": "uint256",
          "name": "",
          "type": "uint256"
        }
      ],
      "payable": false,
      "stateMutability": "nonpayable",
      "type": "function"
    },
    {
      "constant": false,
      "inputs": [
        {
          "internalType": "uint256",
          "name": "petId",
          "type": "uint256"
        },
        {
          "internalType": "address",
          "name": "to",
          "type": "address"
        }
      ],
      "name": "changeOwner",
      "outputs": [
        {
          "internalType": "uint256",
          "name": "",
          "type": "uint256"
        }
      ],
      "payable": false,
      "stateMutability": "nonpayable",
      "type": "function"
    },
    {
      "constant": true,
      "inputs": [],
      "name": "getowners",
      "outputs": [
        {
          "internalType": "address[1000]",
          "name": "",
          "type": "address[1000]"
        }
      ],
      "payable": false,
      "stateMutability": "view",
      "type": "function"
    }
  ],
  "bytecode": "0x608060405234801561001057600080fd5b50610325806100206000396000f3fe608060405234801561001057600080fd5b50600436106100415760003560e01c806340f7486414610046578063784796f714610088578063e26fe63f146100ea575b600080fd5b6100726004803603602081101561005c57600080fd5b8101908080359060200190929190505050610131565b6040518082815260200191505060405180910390f35b6100d46004803603604081101561009e57600080fd5b8101908080359060200190929190803573ffffffffffffffffffffffffffffffffffffffff169060200190929190505050610189565b6040518082815260200191505060405180910390f35b6100f2610249565b60405180826103e860200280838360005b8381101561011e578082015181840152602081019050610103565b5050505090500191505060405180910390f35b6000336000836103e8811061014257fe5b0160006101000a81548173ffffffffffffffffffffffffffffffffffffffff021916908373ffffffffffffffffffffffffffffffffffffffff160217905550819050919050565b60003373ffffffffffffffffffffffffffffffffffffffff166000846103e881106101b057fe5b0160009054906101000a900473ffffffffffffffffffffffffffffffffffffffff1673ffffffffffffffffffffffffffffffffffffffff16146101f257600080fd5b816000846103e8811061020157fe5b0160006101000a81548173ffffffffffffffffffffffffffffffffffffffff021916908373ffffffffffffffffffffffffffffffffffffffff16021790555082905092915050565b6102516102cc565b60006103e88060200260405190810160405280929190826103e880156102c2576020028201915b8160009054906101000a900473ffffffffffffffffffffffffffffffffffffffff1673ffffffffffffffffffffffffffffffffffffffff1681526020019060010190808311610278575b5050505050905090565b60405180617d0001604052806103e89060208202803883398082019150509050509056fea265627a7a72315820bd09e5f9fef3df2caead1fc92cadfbd68e224a5ca305cc182981ed1013b9851264736f6c63430005100032",
  "source": "pragma solidity >=0.5.0;\n\n\ncontract Pets  {\n\n    address[1000] owners;\n    \n    function NewPet(uint petId) public returns (uint) {\n            owners[petId] = msg.sender;\n\n            return petId;\n    }\n\n    function changeOwner(uint petId , address to) public returns (uint) {\n        require(owners[petId] == msg.sender);\n\n        owners[petId] = to;\n\n        return petId;\n    }\n\n\n    function getowners() public view returns (address[1000] memory) {\n        return owners;\n    }\n\n    \n}",
  "sourcePath": "/Users/achref/Desktop/Pinder/blockchain/contracts/Pets.sol",
  "compiler": {
    "name": "solc",
    "version": "0.5.16+commit.9c3226ce.Emscripten.clang"
  },
  "schemaVersion": "3.4.1",
  "updatedAt": "2021-05-22T03:36:49.350Z",
  "networkType": "ethereum",
  "devdoc": {
    "methods": {}
  },
  "userdoc": {
    "methods": {}
  }
}