{
  "contractName": "PinderCoin",
  "abi": [
    {
      "constant": true,
      "inputs": [],
      "name": "owner",
      "outputs": [
        {
          "internalType": "address",
          "name": "",
          "type": "address"
        }
      ],
      "payable": false,
      "stateMutability": "view",
      "type": "function"
    },
    {
      "constant": false,
      "inputs": [
        {
          "internalType": "address",
          "name": "newOwner",
          "type": "address"
        }
      ],
      "name": "transferOwnership",
      "outputs": [],
      "payable": false,
      "stateMutability": "nonpayable",
      "type": "function"
    },
    {
      "constant": true,
      "inputs": [
        {
          "internalType": "int256",
          "name": "amount",
          "type": "int256"
        }
      ],
      "name": "offer",
      "outputs": [
        {
          "internalType": "bool",
          "name": "possible",
          "type": "bool"
        }
      ],
      "payable": false,
      "stateMutability": "view",
      "type": "function"
    },
    {
      "constant": false,
      "inputs": [
        {
          "internalType": "address",
          "name": "receiver",
          "type": "address"
        },
        {
          "internalType": "int256",
          "name": "amount",
          "type": "int256"
        }
      ],
      "name": "deposit",
      "outputs": [
        {
          "internalType": "bool",
          "name": "sufficient",
          "type": "bool"
        }
      ],
      "payable": false,
      "stateMutability": "nonpayable",
      "type": "function"
    },
    {
      "constant": false,
      "inputs": [
        {
          "internalType": "address",
          "name": "receiver",
          "type": "address"
        },
        {
          "internalType": "int256",
          "name": "amount",
          "type": "int256"
        }
      ],
      "name": "sendCoin",
      "outputs": [
        {
          "internalType": "bool",
          "name": "sufficient",
          "type": "bool"
        }
      ],
      "payable": false,
      "stateMutability": "nonpayable",
      "type": "function"
    },
    {
      "constant": false,
      "inputs": [
        {
          "internalType": "uint256",
          "name": "User_Id",
          "type": "uint256"
        }
      ],
      "name": "NewUser",
      "outputs": [],
      "payable": false,
      "stateMutability": "nonpayable",
      "type": "function"
    },
    {
      "constant": true,
      "inputs": [],
      "name": "getBalance",
      "outputs": [
        {
          "internalType": "int256",
          "name": "",
          "type": "int256"
        }
      ],
      "payable": false,
      "stateMutability": "view",
      "type": "function"
    }
  ],
  "bytecode": "0x6080604052336000806101000a81548173ffffffffffffffffffffffffffffffffffffffff021916908373ffffffffffffffffffffffffffffffffffffffff160217905550610681806100536000396000f3fe608060405234801561001057600080fd5b506004361061007d5760003560e01c80638b9e02ad1161005b5780638b9e02ad146101345780638da5cb5b1461017a578063bc9e7d7f146101c4578063f2fde38b1461022a5761007d565b806312065fe0146100825780631a8dea36146100a057806370b8515414610106575b600080fd5b61008a61026e565b6040518082815260200191505060405180910390f35b6100ec600480360360408110156100b657600080fd5b81019080803573ffffffffffffffffffffffffffffffffffffffff169060200190929190803590602001909291905050506102bb565b604051808215151515815260200191505060405180910390f35b6101326004803603602081101561011c57600080fd5b810190808035906020019092919050505061036b565b005b6101606004803603602081101561014a57600080fd5b8101908080359060200190929190505050610402565b604051808215151515815260200191505060405180910390f35b61018261045f565b604051808273ffffffffffffffffffffffffffffffffffffffff1673ffffffffffffffffffffffffffffffffffffffff16815260200191505060405180910390f35b610210600480360360408110156101da57600080fd5b81019080803573ffffffffffffffffffffffffffffffffffffffff16906020019092919080359060200190929190505050610484565b604051808215151515815260200191505060405180910390f35b61026c6004803603602081101561024057600080fd5b81019080803573ffffffffffffffffffffffffffffffffffffffff16906020019092919050505061057e565b005b6000806103e960003373ffffffffffffffffffffffffffffffffffffffff1673ffffffffffffffffffffffffffffffffffffffff1681526020019081526020016000205490508091505090565b60008060009054906101000a900473ffffffffffffffffffffffffffffffffffffffff1673ffffffffffffffffffffffffffffffffffffffff163373ffffffffffffffffffffffffffffffffffffffff16141561036557816103e960008573ffffffffffffffffffffffffffffffffffffffff1673ffffffffffffffffffffffffffffffffffffffff16815260200190815260200160002060008282540192505081905550600190505b92915050565b336001826103e8811061037a57fe5b0160006101000a81548173ffffffffffffffffffffffffffffffffffffffff021916908373ffffffffffffffffffffffffffffffffffffffff16021790555060006103e960003373ffffffffffffffffffffffffffffffffffffffff1673ffffffffffffffffffffffffffffffffffffffff1681526020019081526020016000208190555050565b6000816103e960003373ffffffffffffffffffffffffffffffffffffffff1673ffffffffffffffffffffffffffffffffffffffff168152602001908152602001600020541215610455576000905061045a565b600190505b919050565b6000809054906101000a900473ffffffffffffffffffffffffffffffffffffffff1681565b6000816103e960003373ffffffffffffffffffffffffffffffffffffffff1673ffffffffffffffffffffffffffffffffffffffff1681526020019081526020016000205412156104d75760009050610578565b816103e960003373ffffffffffffffffffffffffffffffffffffffff1673ffffffffffffffffffffffffffffffffffffffff16815260200190815260200160002060008282540392505081905550816103e960008573ffffffffffffffffffffffffffffffffffffffff1673ffffffffffffffffffffffffffffffffffffffff16815260200190815260200160002060008282540192505081905550600190505b92915050565b6000809054906101000a900473ffffffffffffffffffffffffffffffffffffffff1673ffffffffffffffffffffffffffffffffffffffff163373ffffffffffffffffffffffffffffffffffffffff16141561064957600073ffffffffffffffffffffffffffffffffffffffff168173ffffffffffffffffffffffffffffffffffffffff161461064857806000806101000a81548173ffffffffffffffffffffffffffffffffffffffff021916908373ffffffffffffffffffffffffffffffffffffffff1602179055505b5b5056fea265627a7a7231582068cb801caeb0a3e58d55c1d277f3340ea91eef5c0485e608d615b719f2145ccf64736f6c63430005100032",
  "source": "pragma solidity >=0.5.0;\nimport './ownerContract.sol';\n\n\ncontract PinderCoin is ownerContract{\n    address[1000] users;\n    mapping(address => int) PinderCoins;\n    function offer(int amount) public view returns(bool possible){\n        if (PinderCoins[msg.sender] < amount) return false;\n        return true;\n    }\n\n    function deposit(address receiver, int amount) public onlyOwner  returns(bool sufficient) {\n\t\tPinderCoins[receiver] += amount;\n\t\treturn true;\n\t}\n    function sendCoin(address receiver, int amount) public  returns(bool sufficient) {\n\t\tif (PinderCoins[msg.sender] < amount) return false;\n\t\tPinderCoins[msg.sender] -= amount;\n\t\tPinderCoins[receiver] += amount;\n\t\treturn true;\n\t}\n    \n\n   \n\n    function NewUser(uint256 User_Id) public  {\n            users[User_Id] = msg.sender;\n            PinderCoins[msg.sender] = 0;\n            \n    }\n\n    function getBalance() public view returns(int) {\n            int amount = PinderCoins[msg.sender];\n        \treturn amount;\n\t}\n}",
  "sourcePath": "/Users/achref/Desktop/Pinder/blockchain/contracts/PinderCoin.sol",
  "compiler": {
    "name": "solc",
    "version": "0.5.16+commit.9c3226ce.Emscripten.clang"
  },
  "schemaVersion": "3.4.1",
  "updatedAt": "2021-05-22T03:36:49.347Z",
  "networkType": "ethereum",
  "devdoc": {
    "methods": {}
  },
  "userdoc": {
    "methods": {}
  }
}